:100000000C9434000C943E000C943E000C943E0082
:100010000C943E000C943E000C943E000C943E0068
:100020000C943E000C943E000C943E000C943E0058
:100030000C943E000C943E000C943E000C943E0048
:100040000C943E000C943E000C943E000C943E0038
:100050000C943E000C943E000C943E000C943E0028
:100060000C943E000C943E0011241FBECFEFD4E050
:10007000DEBFCDBF0E9440000C9462000C940000D3
:1000800080E68AB981E884BD81E085BD81E090E0A9
:100090008F3F91054CF487BDE3ECF9E03197F1F720
:1000A00000C000000196F4CF8FEF90E08230910500
:1000B0006CF387BDE3ECF9E03197F1F700C0000085
:0800C0000197F4CFF894FFCF83
:00000001FF
